:020000040800F2
:10000000D8190020AD010008B7070008AF070008A5
:10001000B3070008A90700083D0800080000000019
:10002000000000000000000000000000BB07000806
:10003000AD07000800000000B9070008BD07000870
:10004000C7010008C7010008C7010008C701000870
:10005000C7010008C7010008C7010008C701000860
:1000600000000000C7010008C7010008C701000820
:10007000C70100082F080008310800080000000030
:1000800033080008C701000800000000C70100088D
:10009000C70100082D080008C7010008C7010008B3
:1000A000C7010008C7010008C7010008350800089B
:1000B00037080008000000000000000000000000F9
:1000C000C701000800000000C701000800F002F8A6
:1000D00000F05CF80AA090E8000C82448344AAF186
:1000E0000107DA4501D100F051F8AFF2090EBAE884
:1000F0000F0013F0010F18BFFB1A43F0010318475C
:1001000094340000B43400000A444FF0000C10F89E
:10011000013B13F0070408BF10F8014B1D1108BF85
:1001200010F8015B641E05D010F8016B641E01F825
:10013000016BF9D113F0080F1EBF10F8014BAD1C75
:100140000C1B09D16D1E58BF01F801CBFAD505E093
:1001500014F8016B01F8016B6D1EF9D59142D6D3ED
:10016000704700000023002400250026103A28BF15
:1001700078C1FBD8520728BF30C148BF0B60704719
:100180001FB500F04BF91FBD10B510BD00F058F9B8
:100190001146FFF7F5FF01F073FF00F076F903B4A5
:1001A000FFF7F2FF03BC00F07DF90000094880472B
:1001B00009480047FEE7FEE7FEE7FEE7FEE7FEE749
:1001C000FEE7FEE7FEE7FEE704480549054A064B61
:1001D00070470000C1070008CD000008D8130020B8
:1001E000D8190020D8150020D815002053EA020C99
:1001F00000F069802DE9F04B4FF00006002B1FBF87
:10020000B3FA83F503FA05F424FA05F65E4012BF4B
:100210001643B2FA82F502FA05F4C5F120051EBFB5
:1002200022FA05FC44EA0C04203556EA044C4FEA55
:10023000144418BF641C4FF000084FF000099042AE
:1002400071EB030C39D3002919BFB1FA81F701FA18
:1002500007F6B0FA80F700FA07F6C7F120071EBFCD
:1002600020FA07FC46EA0C062037B6FBF4FCA7EBA5
:100270000507103F07F01F0BCBF120060CFA0BFB14
:100280002CFA06F644BFB3460026202FA4BF5E46D4
:100290004FF0000B5BEA060C08BF4FF0010B19EBA7
:1002A0000B09ABFB027C48EB0608C01B06FB02CC2B
:1002B0000BFB03CC71EB0C01C1E70B460246414638
:1002C0004846BDE8F08B13B54FF000004FF0000139
:1002D000AFF30080BDE81C407047032A40F2308035
:1002E00010F0030C00F0158011F8013BBCF1020F77
:1002F000624498BF11F801CB00F8013B38BF11F8F8
:10030000013BA2F1040298BF00F801CB38BF00F80E
:10031000013B11F0030300F02580083AC0F008808B
:1003200051F8043B083A51F804CBA0E80810F5E76F
:10033000121D5CBF51F8043B40F8043BAFF3008052
:10034000D20724BF11F8013B11F801CB48BF11F8C7
:10035000012B24BF00F8013B00F801CB48BF00F897
:10036000012B704710B5203AC0F00B80B1E818504F
:10037000203AA0E81850B1E81850A0E81850BFF48F
:10038000F5AF5FEA027C24BFB1E81850A0E818502E
:1003900044BF18C918C0BDE810405FEA827C24BF82
:1003A00051F8043B40F8043B08BF7047D20728BF10
:1003B00031F8023B48BF11F8012B28BF20F8023B5F
:1003C00048BF00F8012B70474FF0000200B51346FC
:1003D00094469646203922BFA0E80C50A0E80C5065
:1003E000B1F12001BFF4F7AF090728BFA0E80C5016
:1003F00048BF0CC05DF804EB890028BF40F8042B0F
:1004000008BF704748BF20F8022B11F0804F18BF7B
:1004100000F8012B704770477047704770B5064C65
:100420007C44064D7D4403E0206820448047241D21
:10043000AC42F9D170BD0000903100009431000051
:10044000754600F02BF8AE4605006946534620F08D
:100450000700854618B020B5FFF7B6FEBDE820407E
:100460004FF000064FF000074FF000084FF0000B70
:1004700021F00701AC46ACE8C009ACE8C009ACE823
:10048000C009ACE8C0098D46704710B50446AFF30B
:1004900000802046BDE81040FFF781BE004870474D
:1004A0007813002001491820ABBEFEE726000200A9
:1004B000704710B500F0E4FB00F0FAF900F046F8E0
:1004C00010BD00002DE9F041012500F033FD074685
:1004D00001F05CFD04461B480068A04204D01948A6
:1004E0000460002500F05AF900200AE01649095C72
:1004F000012905D113490968884201D0002502E08D
:10050000401C1028F2DB0F48006801F03DFD20B1CF
:10051000012803D0022804D102E002E0002500E017
:1005200000BF00BF25B139460648006801F0D6FA81
:1005300000F01EFC00F0DEF900F0C0F80646BDE851
:10054000F081000044000020FC0200202DE9FC4165
:1005500000F022F906460020009003466622392169
:100560000190534801F0F1F800200090034649F251
:100570003D1241F2210101904E4801F039F9002E5F
:1005800076D1FF204C490872002048728872002101
:10059000494880F83810FF2180F83910002180F890
:1005A0003A1080F8681080F86910FF2180F86A100E
:1005B000882180F8981080F8991080F89A10C0214E
:1005C00080F8C810202180F8C91080F8CA1080F87F
:1005D000F810C02180F8F910202180F8FA1080F876
:1005E000281180F82911C02180F82A11602180F893
:1005F000581180F8591180F85A11802180F888111B
:10060000402180F8891180F88A1180F8B811802182
:1006100080F8B911402180F8BA1180F8E81180F80B
:10062000E911802180F8EA11402180F8181280F841
:10063000191280F81A1280F84812202180F8491205
:1006400080F84A1280F87812402180F8791220212F
:1006500080F87A1280F8A81280F8A912402180F858
:10066000AA12202180F8D81280F8D91280F8DA1264
:10067000114B184603F5407712E002461446214616
:1006800004F1C00C09E00D464FF0000885F8248005
:100690004FF0020885F82C8030316145F3D1C0302D
:1006A000B842EAD14FF4961000F01CFCBDE8FC8182
:1006B0000C040020FC030020000800202DE9F0417C
:1006C000002700F0D9F804460D462E48D0E9001066
:1006D000091BA84100D27F1E2B480068002846D085
:1006E0002948D0F800800020274908602749087071
:1006F0000127C821611845F10000224AC2E9001013
:100700004146234800F05AFB06460A2E2CD2DFE869
:1007100006F0060B10152526161B200525E0414680
:100720001B4800F04BF920E04146194800F06CF9F5
:100730001BE04146164800F08FFA16E015E04146EE
:10074000134800F097FE10E04146114800F0DAFD32
:100750000BE041460E4800F073FD06E005E041461F
:100760000B4800F083FC00E000BF00BF00BF094859
:10077000007820B100F085FA00200649087038465C
:10078000BDE8F081D0020020480000205000002089
:10079000080B00204E000020002070470120014976
:1007A000087070474E00002000BFFEE7704700BF92
:1007B000FEE700BFFEE770477047704770470000D4
:1007C0001748006820F00100401C1549086000BF70
:1007D00013480068C0F340000028F9D01048406872
:1007E00020F003000E49486000BF0D484068C0F388
:1007F00081000028F9D10A4800680A4908400849E0
:1008000008600020486041F61070C8624FF4801004
:1008100008634FF41F008860C803034908607047ED
:1008200000100240FFFFF2FE08ED00E07047704745
:1008300070477047704770477047704700BFFEE7CA
:1008400010B5042001F05EFD074800680749B0FBC1
:10085000F1F007490860084600684FF47A71484390
:100860000449086010BD00000800002040420F004D
:10087000000000200400002010B500220A48006893
:10088000824208D20948D0E90040231C40F101000F
:100890000649C1E9003004480260044903C9024B1B
:1008A0001B68184310BD0000E0020020D8020020A1
:1008B00010B5FF21014800F0F5FF10BDE402002053
:1008C0002DE9F04F04460D4693466E79EF7995F881
:1008D00008A0DFF81C804FF0020984F80290E7704E
:1008E000C4F80480304600F039FC2076BDE8F08F73
:1008F000000080BF10B51448006800B910BD124850
:100900000168124800F0C8FA00B9F7E70F484478C8
:10091000102C00DBF2E70D484079802802D08128B6
:100920000CD105E008480168084800F035FC05E0F6
:1009300005480168054800F07DFC00BF00BF0020AD
:100940000149086000BFD9E71C000020980300207F
:1009500010B5002400F0CEFD012000F01DFA0120AA
:1009600000F04AFE012000F005FA012000F044FEEC
:1009700007E0601CC4B2FA2C03DD00F027FE012062
:1009800010BD00F0E9F90028F3D100F0F3F90020E0
:10099000F6E70146084600F0AA02521000F055039F
:1009A00042EA430000F0CC02921000F0330342EA26
:1009B0008300021142EA0012D0B2704770B50446BB
:1009C0000D460F480078C02141EAC0000D4948702B
:1009D0002A4621460B48401DFFF772FF2C2109488B
:1009E00000F0FEFA06480078072805DA0448007887
:1009F000401C0349087002E000200149087070BDE6
:100A000051000020520000202DE9F84F0646002733
:100A1000B846747996F806A096F80790757ADFF8CC
:100A20001CB202200090002028E004EB4401844A1C
:100A300002EB811100EB400201EB021191F824104E
:100A4000012903D181403943CFB216E004EB4401C0
:100A50007B4A02EB811100EB400201EB021191F89D
:100A60002410022909D1012181403943CFB201214B
:100A7000814041EA080101F0FF08401C0428D4DB52
:100A8000FF2D71D0042D6FDA6E480088B0F5E06F4D
:100A90003AD1B9F1000F76D1BAF1030F14D0BAF1FF
:100AA000070F23D105EB84006549C1F8000300203E
:100AB00004EB4401624A02EB811105EB450201EBB4
:100AC000021181F82C001EE005EB84005C49C1F89E
:100AD0000003012004EB4401594A02EB811105EBAC
:100AE000450201EB021181F82C000CE0022004EB1E
:100AF0004401534A02EB811105EB450201EB02115F
:100B000081F82C0000BF3EE04E480088B0F5905FB1
:100B100039D1B9F13F0F03D0B9F1BF0F25D111E0A1
:100B200005EB84004649C1F80003002004EB4401B2
:100B3000434A02EB811105EB450201EB021181F8FA
:100B40002C001FE005EB84003D49C1F800030120A3
:100B500004EB44013A4A02EB811105EB450201EB3B
:100B6000021181F82C000DE018E0022004EB440192
:100B7000334A02EB811105EB450201EB021181F8CA
:100B80002C0000BF00BF04EB44002D4901EB801096
:100B900005EB450100EB0110D0F828B02A48007899
:100BA000C02141EAC0002949487008464471477293
:100BB000A7EB08008872A7EB0800C872FF20087333
:100BC000084644740098C874707A0873087508461B
:100BD00080F80D80204600F0C1FA1C4981F82900F8
:100BE0000846C0F815B01A480068A0B11848006857
:100BF0000A2802DD0120C87408E01648007813496D
:100C000008730120C87413480078087510480068FC
:100C1000401E0F4908603C210C4800F0E1F90A48E9
:100C20000078072805DA08480078401C0649087053
:100C300002E0002004490870BDE8F88F000080BF82
:100C4000000800204C000020510000207E00002001
:100C5000F8000020FC00002070B504460D466079C5
:100C600001280AD1A079042807DA0448A1888180E4
:100C7000A17981711D2100F0B3F970BD59010020E7
:100C80007047704770B50546002400F033FC00261D
:100C900014E0002000F06EF8022000F0ADFC01200E
:100CA00000F068F86006040E00F056F808B1601C09
:100CB000C4B2012000F0A0FC701CC6B2082EE8DB14
:100CC00015B900F06DFC01E000F020FC204670BD7D
:100CD00070B5044600F030FC002000F04BF8002511
:100CE00015E0E00900F058F86006040E022000F05C
:100CF00083FC012000F03EF8022000F07DFC002083
:100D000000F038F8022000F077FC681CC5B2082D0E
:100D1000E7DB70BD014608464AF6AA22024053109E
:100D200045F25552024043EA42004CF6CC420240A2
:100D3000931043F23332024043EA82004FF2F00252
:100D40000240131140F60F72024043EA02100212F1
:100D500042EA002290B2704710B58021034801F0AA
:100D600065F908B9002010BD0120FCE70004004827
:100D70007047000010B50446012C05D10122402126
:100D8000044801F007F904E000224021014801F085
:100D900001F910BD0004004810B50446012C05D12E
:100DA00001228021044801F0F5F804E000228021AE
:100DB000014801F0EFF810BD0004004870B504468A
:100DC0000D462946204600F08FF808B90B2070BD6B
:100DD0006078C52821D12079062814D006DC0328A4
:100DE0000BD004280BD0052815D10AE007280CD019
:100DF00008280CD020280ED10BE00020E7E70120C6
:100E0000E5E70220E3E70320E1E70420DFE7052030
:100E1000DDE70920DBE70A20D9E76078052834D12F
:100E20001B4A2946204600F011FB1948B0F805007E
:100E3000B0F5E06F05D11648B0F8050015490880F7
:100E40000AE01348B0F80500B0F5905F04D11048EF
:100E5000B0F805000F4908800D48B0F80900A0F26D
:100E6000031068B1B0F5877F08D0A0F2171018B151
:100E7000B0F5F47F07D104E00620A8E70720A6E735
:100E800000BF0820A3E70A20A1E70B209FE700008E
:100E9000641300204C0000202DE9F04105460C466B
:100EA0000F4800F0B3FCA41E002704E0E95D0C48E5
:100EB00000F06AFC7F1CA742F8DB094800F083FDC4
:100EC0000646285DF1B2884207D1601C285CB0EB71
:100ED000162F02D10120BDE8F0810020FBE70000C1
:100EE00018030020704700002DE9F04105460C462C
:100EF0000F4800F08BFCA41E002704E0E95D0C48BD
:100F000000F042FC7F1CA742F8DB094800F05BFDC3
:100F10000646285DF1B2884207D1601C285CB0EB20
:100F2000162F02D10120BDE8F0810020FBE7000070
:100F3000FC0300202DE9F04F85B0002004902048EC
:100F400000F0C9FC8246BAF5406F07DD1D48006815
:100F5000B0F5806F02DC1C4804900AE0BAF5806F9F
:100F600007DC18480068B0F5406F02DD4FF4805090
:100F7000049014490968AAEB01020499501802F080
:100F800081FA019002F052FA104A114BCDE90201A8
:100F900002F04EF906460F4A0F4B02F049F904469B
:100FA00000220E4B01F0ECFF804601F0B7FF8346B4
:100FB0000448C0F800A0584605B0BDE8F08F000016
:100FC000E40200203400002000F0FFFF182D4454FC
:100FD000FB210940CDCCCCCCCC4C33400000B04000
:100FE0002DE9F04104460D461E4800F0BCFB607838
:100FF00000F0800068B1002704E0E15D194800F0CE
:1010000075FB7F1C032FF8DB164800F0CFFCE07067
:101010000CE0002704E0E15D124800F067FB7F1C54
:10102000062FF8DB0F4800F0C1FCA0710E4800F05D
:10103000EDFBAD1E002704E0E15D0B4800F0A4FBD2
:101040007F1CAF42F8DB084800F0BDFC0646665541
:101050003112681C2154AD1CA9B2204600F008FBD7
:10106000BDE8F0810C040020FC0300202DE9F041D4
:1010700004460F46E41D14F8025C05F0F00605F086
:101080000F0506EB4600334901EB801005EB4501E7
:1010900000EB01102168016061684160207A06EB75
:1010A00046012C4A02EB811105EB450201EB0211CE
:1010B0000872607A06EB4601264A02EB811105EBC5
:1010C000450201EB02114872A07A06EB4601214A63
:1010D00002EB811105EB450201EB02118872E07A07
:1010E00006EB46011B4A02EB811105EB450201EBC1
:1010F0000211C87206EB4600164901EB801005EBA1
:10110000450100EB0110A189818106EB46001149E0
:1011100001EB801005EB450100EB0110E189E41FB4
:10112000C18106EB46010B4A02EB811105EB45023A
:1011300001EB021101F11000142204F11701FFF775
:10114000CCF808210448FFF74BFFFFF727FBBDE869
:10115000F081000000080020BB02002010B501460D
:101160000022002011E001EB41030A4C04EB831341
:1011700000EB400403EB041393F82430012B03D15C
:10118000834083401343DAB2401C0428EBDB104653
:1011900010BD0000000800202DE9F04105460F4673
:1011A0006C78AE790F2E13D0F02E09D0F12E17D116
:1011B0000121204600F0FAFF01200B4908550FE0FD
:1011C0000121204600F0F2FF00200749085507E002
:1011D0000021204600F0EAFF00200349085500BF27
:1011E00000BFBDE8F0810000FC02002010B50446FD
:1011F0003D200F49087000204870B4F80F000F30F0
:101200006080881C216801606168416021890181DA
:10121000A17A81720B34A28821680B30FFF75DF848
:10122000A0880B3C00F10F010148FFF7D9FE10BD6B
:101230007C0F00200A46817901B900BF00BF7047CA
:101240002DE9F04186B006460F46294A3946304618
:1012500000F0FCF82648D0F80B0090F800802448F5
:10126000B0F80500B0F5E06F02D1224D224C0BE042
:101270001F48B0F80500B0F5905F02D11F4D204C1B
:1012800002E006B0BDE8F0811948B0F80900A0F20C
:10129000031018B1A0F2FF2078B9F2E71448D0F893
:1012A0000B0090F80080CDF80F401520ADF813002A
:1012B000DDF80F0080F8148000E0E2E700BF0C4882
:1012C0000088ADF804000A48B0F80900ADF80D0038
:1012D0000748B0F80500ADF80B000548B0F8070066
:1012E000ADF8090001A8FFF781FF00BFC9E70000C2
:1012F000641300204E020020A50200200C020020F2
:1013000090020020F0B585B006460F464C4A39469B
:10131000304600F09BF84A48D0F80B000478484863
:10132000D0F80B00457847480470457004EB440042
:10133000454901EB801005EB450100EB01104149E7
:10134000133102680A604068486004EB44003E4A7A
:1013500002EB801005EB450200EB021000F11001DA
:10136000142238481B30FEF7B8FF04EB440036491E
:1013700001EB801005EB450100EB0110007A3149CB
:1013800081F83B0004EB44002F4901EB801005EB92
:10139000450100EB0110407A2A4981F83C0004EB3A
:1013A0004400294901EB801005EB450100EB0110D9
:1013B000807A244981F83D0004EB4400224901EB86
:1013C000801005EB450100EB0110C07A1D4981F842
:1013D0003E0004EB44001C4901EB801005EB450185
:1013E00000EB01111748C989A0F84F1004EB440025
:1013F000154901EB801005EB450100EB0111114887
:101400008989A0F85110CDF80B008320ADF80F00AA
:101410000B480088ADF800000948B0F80900ADF8A5
:1014200009000748B0F80500ADF807000448B0F817
:101430000700ADF805006846FFF7D8FE05B0F0BD1F
:10144000641300208901002000080020D0F8023039
:101450001360D0F80630536043891381037B937285
:1014600000F10D03C2F80B30A1F10F03A2F80F3009
:101470007047000070B586B004460D461B48D0F892
:101480000B000678194A29462046FFF7DFFF174868
:10149000B0F80500B0F5E06F07D01448B0F80500CB
:1014A000B0F5905F01D006B070BD1148CDF80F00C7
:1014B000DDF80F0006700620ADF813000B48008819
:1014C000ADF804000948B0F80900ADF80D00074870
:1014D000B0F80500ADF80B000448B0F80700ADF80F
:1014E000090001A8FFF782FE00BFDCE764130020BB
:1014F000830100200448006820F44040024908604D
:1015000008460068086070470004004810B50020D5
:10151000FFF730FC00F010F80020FFF73DFC022040
:1015200000F06AF80120FFF725FC022000F064F8C3
:101530000020FFF71FFC10BD0548006820F4404064
:10154000034908600846006840F48040086070471E
:10155000000400481CB501210F4800F011FC68464A
:1015600000F01DFD01208DF8070000208DF804001B
:1015700001208DF80600C020009001208DF80500A4
:101580006946064800F015FD0120FFF7F3FB012036
:10159000FFF702FC1CBD000012001400000400480C
:1015A00010B50020FFF7E6FBFFF7C6FF0120FFF7AD
:1015B000F3FB022000F020F80120FFF7DBFB022004
:1015C00000F01AF80020FFF7D5FB10BD10B5FFF7AB
:1015D000B3FF0020FFF7CEFB0020FFF7DDFB042068
:1015E00000F00AF80120FFF7C5FB0120FFF7D4FB4C
:1015F000042000F001F810BD0146114A12684A4368
:101600004FF0E0235A6100229A611A46126942F0B3
:1016100001021A6100BF4FF0E022106900F00102E0
:101620001AB100F48032002AF5D04FF0E02212699E
:1016300022F001024FF0E0231A6100229A61704704
:101640000000002010B5FFF777FF0120FFF7A4FB93
:101650000120FFF78FFB0420FFF7CEFF0020FFF7EC
:101660009BFB0420FFF7C8FF0020FFF783FB10BDA2
:101670007047000010B5002804DB0A07130E054A66
:10168000135406E00A07140E034A00F00F031B1F51
:10169000D45410BD00E400E018ED00E0F0B50346BE
:1016A0000C4603F00701C1F10700042801D904200A
:1016B00001E0C1F107000646081D072801D20020FD
:1016C00000E0C81E05460120B040401E2040A84052
:1016D0000127AF407F1E17403843F0BD0248006825
:1016E000C0F30220704700000CED00E070B5044626
:1016F0000D46A068401CA0602946204600F001F875
:1017000070BD70B504460D46E07818B12846FFF765
:1017100040F90546607968406071082012E06179FF
:1017200001F0800141B161794906090E6171617969
:1017300022785140617103E061794906090E6171B7
:10174000411EC8B20028EAD170BDF0B504460D466E
:10175000DDE9056725706270A370E6702771204689
:1017600000F001F8F0BD41784171002181607047BF
:1017700070B5DDE90445017042708370C470057175
:1017800042710026866070BD70B504460D46E06863
:10179000401CE0602946204600F001F870BD70B59D
:1017A00004460D46A07918B12846FFF7F2F8054621
:1017B000208980EA05202081082016E0218901F493
:1017C000004151B121894FF6FF7202EA41012181A6
:1017D000218922885140218105E021894FF6FF723D
:1017E00002EA41012181411EC8B20028E6D170BD44
:1017F000F0B504460D46DDE9056725806280A380CB
:10180000A671E771204600F001F8F0BD4188018122
:101810000021C160704770B5DDE904450180428058
:1018200083808471C57102810026C66070BD014647
:10183000012070472DE9F04180460F4615461C46B1
:10184000069EFFF7FFFE002141EA4701C8B2FFF7FD
:101850003FFAFFF77DF82846FFF73AFAFFF778F8E6
:10186000FFF7F0FE012101EB4501C8B2FFF730FAA6
:10187000FFF76EF80DE0012C04D10020FFF702FA0B
:10188000307006E00120FFF7FDF93070761C601E15
:10189000C4B2002CEFD1FFF799FE0020BDE8F08123
:1018A0008170704770B504460D46FFF753FE6570B2
:1018B0006078FF2801D0002070BD00212046FFF78E
:1018C000EFFFFFF747FE2046FFF7B1FF08B9002002
:1018D000F2E70120F0E770B504460C21204600F045
:1018E00014F8C0F30B05E089002803DDE0892844E3
:1018F000C0F30B056078FF2805D1A078012802D13C
:101900006842C0F30B05A8B270BD7CB504460E4614
:1019100000206060002501A8009021780123324654
:101920002046FFF787FF9DF8040005444FF6FF703F
:1019300000EA052501A80090701EC2B2217801239B
:101940002046FFF777FF9DF80400284485B228461B
:101950007CBD000010B50446002020606060114886
:10196000016821608088A080FF2020726072A072D0
:10197000E072DC20A081F020E081142104F110004D
:10198000FEF722FD084801682161007920750120D9
:1019900084F824000020A062022084F82C00204655
:1019A00010BD0000843500088C35000870B5044671
:1019B0006579207918B12846FEF7EBFF0546A07837
:1019C0004540284670BD70B504462589E07918B1B8
:1019D0002846FFF79FF90546A0884540284670BD78
:1019E0002DE9F0411C4617460E00804607D00546FB
:1019F00002E02846B0473D442046641EF9D24046E6
:101A0000BDE8F0811CB5002000900346024648F274
:101A1000010101901148FFF7FEFE002000900346EF
:101A20000246072101900E48FFF7A2FE0D4C10233D
:101A300030220D492046FFF7D3FF04460020C4F8AA
:101A400000030A48C4F804030020009003466622FD
:101A5000392101900648FFF78BFE1CBDFC030020D6
:101A60000C04002000080020551900086140614066
:101A7000F00E00201CB5154836210170FF21417081
:101A800000218170416081608181C1810161818219
:101A90000020009003466622392101900C48FFF790
:101AA00067FE00200090034649F23D1241F22101F9
:101AB00001900848FFF7AFFE002000900346662221
:101AC000392101900448FFF753FE1CBDE4020020B9
:101AD0000C030020180300208C0300207047000036
:101AE0000349496860F30711014A516070470000DB
:101AF000001002400349496860F30A21014A51601D
:101B000070470000001002400349496860F3CD218E
:101B1000014A51607047000000100240012807D1BF
:101B20000749496D21F030013031054A516505E022
:101B30000349496D21F03001014A516570470000A9
:101B400000100240052827D2DFE800F0030A111830
:101B50001F00134A126861F30002114B1A601CE067
:101B60000F4A126861F310420D4B1A6015E00C4ADF
:101B7000126861F318620A4B1A600EE0084A126A92
:101B800061F30002064B1A6207E0054A526A61F3EC
:101B90000002034B5A6200E000BF00BF7047000024
:101BA000001002402DE9F04F85B004460025AA46FA
:101BB000AB460026A94600200490039002900190B5
:101BC00000F0DAF90090009820B1012812D0022824
:101BD00075D112E05648406DC0F3402038B15448EA
:101BE000006BC0F3406010B15248206001E05248E1
:101BF000206067E05048206064E04D484068C0F3D2
:101C0000004B4B48C06AC00F30BB49484068C0F326
:101C1000834547484068C0F3417ABAF1000F01D1CB
:101C20000F2D04D14FEA0A10401C054400E0AD1C02
:101C3000BBF1000F03D14148684320603DE03C48C0
:101C40004068C0F3404018B13C486843206034E02D
:101C500039486843206030E03548C06AC0F303105B
:101C600003903348C06AC0F3082002903048C06A2D
:101C700000F007000190BBF1000F02D12F48049043
:101C800009E02B484068C0F3404010B12B48049055
:101C900001E0294804900121019801FA00F003991C
:101CA00000FB01FC02990498A0FB0170014662460A
:101CB00000233846FEF79AFA206003E0FFE71E484B
:101CC000206000BF00BF1A484068C0F303161C48DC
:101CD00010F80690206820FA09F060601448406807
:101CE000C0F30226174810F80690606820FA09F041
:101CF000E0600F484068C0F3C226134810F8069011
:101D0000606820FA09F0A06009484068C0F30076D6
:101D100007484068C0F3813040EA86060B4810F857
:101D20000690A068B0FBF9F0206105B0BDE8F08F27
:101D300000100240006CDC0200127A0000093D0035
:101D40004A3500085A350008623500086A3500082F
:101D500010B501460020094B03EB1142126801F057
:101D60001F040123A3401A4001F01F040123A340D4
:101D70009A4200D000E0012010BD00000010024097
:101D800010B501290DD10E4B03EB1042126800F083
:101D90001F040123A3401A43094C04EB10431A60AB
:101DA0000CE0074B03EB1042126800F01F04012304
:101DB000A3409A43024C04EB10431A6010BD00008C
:101DC0000010024030B502460020002372B9354CA5
:101DD000646824F48034334D6C6033482C46246BA3
:101DE00024F0007404F100742C6319E02D4C646835
:101DF00024F4803404F580342A4D6C60012A06D125
:101E00002A482C46646824F400346C6008E02648B4
:101E1000244C646824F4003404F50034214D6C60D3
:101E2000234CA04204D9234CA04201D2002326E037
:101E3000214CA04204D9214CA04201D201231EE032
:101E40001F4CA04204D91F4CA04201D2022316E02D
:101E50001C4CA04204D91C4CA04201D203230EE02A
:101E60001A4CA04204D91A4CA04201D2042306E025
:101E7000174CA04203D9174CA04200D20523094CAD
:101E8000646861F39544074D6C600D09054C646806
:101E900065F35E74034D6C602C46E46A63F31A6468
:101EA000EC6230BD0010024000093D0000127A00D3
:101EB00060823B00404B4C0080584F00105E5F003A
:101EC00094357700101B7F0020BCBE00286BEE000D
:101ED00030D73D01D8E9DC011648006820F0010048
:101EE000401C1449086000BF12480068C0F340005D
:101EF0000028F9D00F48406820F003000D494860E1
:101F000000BF0C484068C0F381000028F9D109489F
:101F1000006809490840074908600020486041F608
:101F20001070C8624FF4801008634FF41F0088607F
:101F30007047000000100240FFFFF2FE0D494968A3
:101F400060F301010B4A516000BF00BF00BF00BF3A
:101F500000BF00BF00BF00BF00BF00BF00BF00BF89
:101F600000BF00BF00BF00BF00BF00BF00BF00BF79
:101F7000704700000010024002484068C0F3810032
:101F80007047000000100240014670470020704773
:101F9000816270470AB1816100E0816270474FF64B
:101FA000FF71016000218171017141710121C171D5
:101FB000704770B50A4600211488A3B233E003F0DD
:101FC00001046CB304684E000325B540AC430460C3
:101FD00094794D00AC4005682C43046044680125A9
:101FE0008D40AC434460446815798D402C43446077
:101FF00084684E000325B540AC438460D4794D001D
:10200000AC4085682C438460C4684E000325B5400D
:10201000AC43C46054794D00AC40C5682C43C460E7
:102020005B104C1CA1B2002BC9DC70BD0246002025
:1020300013690B408B4200D000E001207047F0B5DF
:10204000002300244D07ED0E02FA05F3CD105DB11B
:10205000456A4E07F70E0F26BE40B5434562456AF6
:1020600045EA030444620AE0056A4E07F70E0F26AC
:10207000BE40B5430562056A45EA03040462F0BD4B
:1020800000F090FC00F060FC00F0E0FB00F086FE49
:1020900000F0F0FE00F062FB00F044FD00F068FD8F
:1020A00000F0C8FCFEF7CCFBFEF7C6FBFEF701FA1A
:1020B00003E0FEF7C2FBFEF705FAFAE72DE9F04769
:1020C0000B4614464FF0000C00BF2C4A1268C2F3B6
:1020D00002211D4626460A46C2F10709B9F1040F3E
:1020E00002D94FF0040901E0C2F10709C84602F124
:1020F0000409B9F1070F02D24FF0000901E0A2F183
:1021000003094F464FF0010909FA08F9A9F101093D
:1021100009EA050909FA07F94FF0010A0AFA07FA6C
:10212000AAF1010A0AEA060A49EA0A09CC46014666
:102130006246002904DB15072E0E114D6E5407E090
:1021400015072F0E0D4D0C3501F00F06361FAF553C
:1021500000BF014600290DDB00BF00BF01F01F05D5
:102160000122AA404D09AD0005F1E025C5F8002186
:1021700000BF00BF00BFBDE8F08700000CED00E02D
:1021800000E400E000BF00F00702064B19684FF6BC
:10219000FF031940044B0B4343EA0221014B196032
:1021A00000BF70470CED00E00000FA05704700002A
:1021B0002DE9FF5F002400250026A146A246A34684
:1021C0000020039002900190FFF7D6FE0090009847
:1021D00020B1012814D0022874D115E04348406D85
:1021E000C0F3402040B14148006BC0F3406018B1DB
:1021F0003F484049086002E03F483E49086065E0CA
:102200003D483C49086061E038484068C0F30046FA
:102210003648C06AC00F20BB34484068C0F38344CE
:1022200032484068C0F341750DB90F2C03D1280125
:10223000401C044400E0A41C26B9304860432D49EA
:1022400008603DE029484068C0F3404020B12B4879
:1022500060432849086033E0274860432549086007
:102260002EE02248C06AC0F3031003901F48C06AE2
:10227000C0F3082002901D48C06A00F007000190DA
:1022800016B9DFF878B009E018484068C0F340405C
:1022900010B1DFF868B001E0DFF85CB0012101980F
:1022A00001FA00F0039900FB01FC0298ABFB0070FF
:1022B0000146624600233846FDF798FF0D49086045
:1022C00004E0FFE70C480B49086000BF00BF074867
:1022D0004068C0F303190A4810F809A005480068CF
:1022E00020FA0AF003490860BDE8FF9F0010024091
:1022F000006CDC020800002000127A0000093D009A
:1023000072350008042808D14FF0E021096941F036
:1023100004014FF0E022116107E04FF0E02109696C
:1023200021F004014FF0E02211617047C162826226
:10233000436923F001035B1C436170478B79426C56
:1023400063F30C3242640B78426C63F3070242641D
:102350004B79426C63F38A2242640B79426C63F3DB
:10236000CB2242644B78426C63F34D324264CB78AB
:10237000426C63F38E3242648B78426C63F30922C1
:10238000426470470B4633B1022B06D0042B06D0B3
:10239000062B08D105E0426306E0826304E0C263D5
:1023A00002E0026400E000BF00BF7047026861F312
:1023B000092202607047026861F3061202607047EA
:1023C000026861F300020260704710B50B4633B13A
:1023D000022B09D0042B0CD0062B14D10EE08469FB
:1023E00062F3C30484610FE0846962F3CB248461E7
:1023F0000AE0C46962F3C304C46105E0C46962F31E
:10240000CB24C46100E000BF00BF10BD2DE9F04146
:1024100000250026002701F108035C1C92F801C08A
:102420000CFA03FC1FFA8CF592F802C00CFA04FCBB
:102430001FFA8CF6D0F804C04FF0010808FA04F82F
:102440002CEA080CC0F804C0D0F804C04CEA060C12
:10245000C0F804C0D0F804C04FF0010808FA03F82F
:102460002CEA080CC0F804C0D0F804C04CEA050CF3
:10247000C0F804C00F4637B1022F0DD0042F14D07E
:10248000062F24D11AE092F80080D0F818C068F323
:10249000061CC0F818C01BE092F80080D0F818C0E5
:1024A00068F30E3CC0F818C012E092F80080D0F833
:1024B0001CC068F3061CC0F81CC009E092F800803C
:1024C000D0F81CC068F30E3CC0F81CC000E000BF90
:1024D00000BF4FF0010C0CEB41034FF0030C0CEB71
:1024E000410492F803C00CFA03FC1FFA8CF592F831
:1024F00004C00CFA04FC1FFA8CF64FF0010808FA2D
:1025000004F8D0F820C02CEA080CC0F820C0D0F89D
:1025100020C04CEA060CC0F820C04FF0010C0CFAA9
:1025200003FCD0F8208028EA0C08C0F82080D0F8FE
:1025300020C04CEA050CC0F820C04B004FF0020C44
:102540000CEB410492F805C04FEA41080CFA08FC74
:102550001FFA8CF592F806C04FF0020808EB41080C
:102560000CFA08FC1FFA8CF64FF0010808FA04F880
:10257000D0F820C02CEA080CC0F820C0D0F820C049
:102580004CEA060CC0F820C04FF0010808FA03F826
:10259000D0F820C02CEA080CC0F820C0D0F820C029
:1025A0004CEA050CC0F820C0BDE8F08110B50B4620
:1025B00033B1022B09D0042B0CD0062B14D10EE022
:1025C000846962F3820484610FE0846962F38A247F
:1025D00084610AE0C46962F38204C46105E0C469ED
:1025E00062F38A24C46100E000BF00BF10BD426CEA
:1025F00061F3CF3242647047026861F3C712026030
:102600007047426861F3061242607047026B61F3E3
:10261000070202637047826861F3C71282607047E5
:10262000C26861F34D32C260704741B9426922F419
:1026300080724261426922F40072426127E00129FE
:102640000AD1426922F4807202F5807242614269C5
:1026500022F4007242611AE002290AD1426922F48E
:1026600080724261426922F4007202F50072426196
:102670000DE003290BD1426922F4807202F58072C9
:102680004261426922F4007202F5007242617047B1
:102690002DE9F04385B004460F46904699466846BA
:1026A000FFF780FA1448844201D1029E00E0039EA5
:1026B00006EB86004000B0FBF7F50A20B5FBF0F111
:1026C00000FB1150052803D20A20B5FBF0F503E00A
:1026D0000A20B5FBF0F0451CA06865F30F00A06070
:1026E000E06868F30C30E060206969F30D30206128
:1026F00005B0BDE8F08300000038014041B9C26870
:1027000022F40072C260C26822F48062C2601AE0E1
:1027100001290AD1C26822F40072C260C26822F4A0
:10272000806202F58062C2600DE002290BD1C268AE
:1027300022F4007202F50072C260C26822F4806264
:1027400002F58062C2607047C26861F38202C260B3
:102750007047C26861F3C302C26070471CB5684627
:10276000FFF71DFC00208DF8060040F633100090A6
:1027700000208DF8050069464FF09040FFF719FCE6
:1027800000208DF806000420009000208DF8050040
:1027900069462C48FFF70DFC03212B48FFF7F8FB97
:1027A0004FF400414FF09040FFF7F2FBF82125482D
:1027B000FFF7EEFB02208DF8070000208DF80400E3
:1027C00001208DF80600009000208DF80500694674
:1027D0001D48FFF7EEFB02208DF8070001208DF861
:1027E00004008DF806000220009000208DF80500FE
:1027F00069461548FFF7DDFB02208DF80700002031
:102800008DF8040001208DF80600C0030090002020
:102810008DF8050069464FF09040FFF7CAFB022093
:102820008DF8070000208DF8040001208DF80600C7
:10283000F820009000208DF8050069460148FFF758
:10284000B8FB1CBD000400480014004870B503200C
:10285000FFF798FCFEF742FF054600221146FEF7FF
:102860001DFF044621466FF00B00FEF703FFFEF745
:1028700035FF054600221146FEF710FF04462146AB
:102880006FF00A00FEF7F6FEFEF728FF054600226D
:102890001146FEF703FF044621466FF00900FEF7DC
:1028A000E9FEFEF71BFF054600221146FEF7F6FE85
:1028B000044621466FF00400FEF7DCFEFEF70EFF33
:1028C000054600221146FEF7E9FE044621466FF058
:1028D0000300FEF7CFFEFEF701FF0546002211467A
:1028E000FEF7DCFE044621466FF00100FEF7C2FE53
:1028F000FEF7F4FE054600220F21FEF7CFFE044648
:1029000021464FF0FF30FEF7B5FE002211460D20A4
:10291000FFF7D4FB002211460E20FFF7CFFB002269
:1029200011461020FFF7CAFB002211461520FFF7C1
:10293000C5FB002211461B20FFF7C0FB002201212E
:102940001C20FFF7BBFB70BD10B501211248FFF73B
:1029500017FA01211048401CFFF712FA01210E4816
:10296000401DFFF70DFA01210C48FFF709FA01217C
:102970000A48C01CFFF704FA01210848801DFFF730
:10298000FFF901210648FFF7FBF901210448103047
:10299000FFF7F6F910BD0000110014000B0018003D
:1029A00001001C0010B5FFF797FA40F253101F49C1
:1029B000086001210420FFF7C5F800BF1C48FFF79D
:1029C000C7F90128FAD101210020FFF7BBF800BFA9
:1029D0000120FFF7BDF90128FAD11D210020FFF7E2
:1029E000F1F901210220FFF7ADF800BF1920FFF730
:1029F000AFF90128FAD10020FFF772F80020FFF7A5
:102A000083F80020FFF776F80120FFF787F802200F
:102A1000FFF794FA00BFFFF7AFFA0228FBD10020BE
:102A2000FFF77CF8FFF7C4FB10BD00000020024058
:102A30000100240000B587B005A8FFF7B0FA022214
:102A400008213648FFF7FBFA4FF48070059002200A
:102A50008DF81A0000208DF818008DF8190002205A
:102A60008DF81B0005A92D48FFF7A3FA0C2240F6AC
:102A700059512B48FFF75AFC00212948FFF79BFCCE
:102A800000212748FFF792FC00212548FFF7BEFDF3
:102A900000212348FFF7B0FD06208DF80C0001202F
:102AA0008DF8110000208DF812008DF80F008DF8C0
:102AB00010008DF80D008DF80E0003AA00211848B3
:102AC000FFF7A4FC002211461548FFF75BFC00222B
:102AD00011461348FFF779FC002211461048FFF712
:102AE00065FD00208DF80A008DF807008DF80500BF
:102AF0008DF808008DF809008DF806008DF80400A7
:102B000001A90748FFF71AFC01210548FFF76FFDEF
:102B100001210348FFF754FC07B000BD0004004842
:102B20000044014010B5772240F2E7310F48FFF72B
:102B3000FDFB00210D48FFF73EFC00210B48FFF78D
:102B400035FC00210948FFF761FD00210748FFF728
:102B500053FD00210548FFF75EFD00210348FFF704
:102B600050FD01210148FFF72BFC10BD002C014056
:102B70001FB502A8FFF713FA012206214FF090407B
:102B8000FFF75DFA4020029002208DF80E00002031
:102B90008DF80C008DF80D0002208DF80F0002A9B1
:102BA0004FF09040FFF705FA012207214FF09040C7
:102BB000FFF745FA8020029002208DF80E000020D9
:102BC0008DF80C008DF80D0002208DF80F0002A981
:102BD0004FF09040FFF7EDF9012200216D48FFF71B
:102BE0002EFA0120029002208DF80E0000208DF8B0
:102BF0000C008DF80D0002208DF80F0002A9654829
:102C0000FFF7D7F9012211466248FFF718FA0220B0
:102C100002908DF80E0000208DF80C008DF80D004C
:102C200002208DF80F0002A95A48FFF7C2F9772257
:102C300040F2E7315848FFF779FB00215648FFF78B
:102C4000BAFB00215448FFF7B1FB00215248FFF7BF
:102C5000D3FC00215048FFF7DEFC00214E48FFF76F
:102C6000D0FC06208DF8000001208DF80500002022
:102C70008DF806008DF803008DF804008DF8010032
:102C80008DF802006A4600214348FFF7BFFB00228F
:102C900011464148FFF776FB002211463E48FFF7F8
:102CA00094FB002211463C48FFF780FC06208DF87B
:102CB000000001208DF8050000208DF806008DF839
:102CC00003008DF804008DF801008DF802006A46BB
:102CD00002213148FFF79AFB002202212E48FFF71C
:102CE00051FB002202212C48FFF76FFB002202213A
:102CF0002948FFF75BFC06208DF8000001208DF8C5
:102D0000050000208DF806008DF803008DF8040002
:102D10008DF801008DF802006A4604211E48FFF775
:102D200075FB002204211C48FFF72CFB0022042124
:102D30001948FFF74AFB002204211748FFF736FC29
:102D400006208DF8000001208DF8050000208DF888
:102D500006008DF803008DF804008DF801008DF851
:102D600002006A4606210C48FFF750FB00220621AC
:102D70000948FFF707FB002206210748FFF725FB5C
:102D8000002206210448FFF711FC01210248FFF749
:102D900017FB1FBD00040048000400401CB5684636
:102DA000FFF7FDF801220921C806FFF748F90220C4
:102DB0008DF8070000208DF8040002208DF8060031
:102DC0000002009000208DF8050069464FF0904009
:102DD000FFF7EFF801220A214FF09040FFF72FF99B
:102DE00002208DF8070000208DF8040002208DF8E5
:102DF00006004002009000208DF8050069464FF063
:102E00009040FFF7D6F801220C214FF09040FFF7D9
:102E100016F902208DF8070000208DF8040002202A
:102E20008DF80600C002009000208DF8050069466C
:102E30004FF09040FFF7BDF800231A464FF496116B
:102E40000B48FFF725FC01210948FFF782FC01210F
:102E50000748FFF779FC01210548FFF74FFC0121E6
:102E60000348FFF7E2FB01210148FFF7D9FB1CBD36
:102E7000003801401CB56846FFF791F80122022195
:102E80004FF09040FFF7DBF802208DF8070000209C
:102E90008DF8040002208DF8060004200090002028
:102EA0008DF8050069464FF09040FFF782F8012247
:102EB00003214FF09040FFF7C2F802208DF8070081
:102EC00000208DF8040002208DF8060008200090F4
:102ED00000208DF8050069464FF09040FFF769F833
:102EE00000231A464FF4E1310B48FFF7D1FB0121D3
:102EF0000948FFF72EFC01210748FFF725FC0021B8
:102F00000548FFF7FBFB00210348FFF78EFB01217B
:102F10000148FFF785FB1CBD0044004021F0004242
:102F2000A2F16052B2F5801F01F0004328BFD2F138
:102F30007F6C0BD95FEA001C43EAC20242EB50707F
:102F400018BF704728BF20F001007047B2F5801FFE
:102F5000BCBF184670474FEA410C1CF5001F02D257
:102F6000084600F0EDBA70B500F00CFA00000089D8
:102F7000FFF7F6BF4FF00040A0F58000704700005B
:102F80002DE9C04130B4DFF8A0C23CEA111418BFEB
:102F90003CEA131400F0EC8081EA03051CEA1114EA
:102FA00044EAD57418BF1CEA131500F0C780A4EBDF
:102FB00005044FF0004545EAC12145EAC32341EA33
:102FC000505143EA525304F17F74994204F500349E
:102FD0004FEAC0204FEAC22208BF904200F09C8016
:102FE0004FEA13650FF24016765D4FEA134506FB74
:102FF00005F7C7F1807706FB07F74FEAD737A7FB3E
:1030000003687642C8F58038A7FB06CE38BFA8F122
:10301000010807FB08E64FF0000EA6FB028CE6FB5A
:1030200003CEDCF1000CCEF1004E38BFAEF1010E44
:10303000A6FB0C584FF000074FF00005E6FB0E878B
:10304000A1FB08C6A0FB07CE16EB0E0645F1000556
:10305000E1FB076515F1E04E7EBFA4F580345FEA21
:1030600046066D4116F1800745F100054FEA172726
:103070004FEA066647EA0567A6F1DE46B6F1805FCD
:103080004FEA15251FD9384624F0010C05EBC47111
:10309000BCF1FE6F01EB0C1102D8F0BCBDE8008161
:1030A00024425CBF01F5801E9EEAC47F02D4F0BCBE
:1030B000BDE80081244238D4F0BCA1F1C041BDE894
:1030C000004100F0ADB94FEAD22242EA43524FEA42
:1030D000D323A7FB02864FEAD02040EA415007FBEA
:1030E00003661EEA0E0F4FEAD12105FB026658BFA8
:1030F000A6EB0056B6EB00564FEA520E4EEAC37EE0
:1031000018EB0E0E56EB530EBDD518EB02085E41C0
:103110007F1C55F10005B6E74FF480154FF000070E
:103120004FF000064FF00008ADE7F0BC4FF0000094
:1031300001F1C04101F00041BDE8008111EA0C1F1E
:103140000CEA131500D00CE013EA0C1F00F02580E8
:103150004FF00000F0BC81EA030101F00041BDE83E
:103160000081F0BCBDE8004181EA030100F058B9DC
:10317000F0BCBDE8004170B500F004F9097EFC3EEA
:1031800000F007B881EA03014FF0000001F00041B0
:10319000704781EA030100F043B9F0BCBDE800418B
:1031A0004FF0000021497047FFFDFBF9F7F5F4F2FD
:1031B000F0EEEDEBE9E8E6E4E3E1E0DEDDDBDAD8D2
:1031C000D7D5D4D3D1D0CFCDCCCBCAC8C7C6C5C430
:1031D000C2C1C0BFBEBDBCBBBAB9B8B7B6B5B4B347
:1031E000B2B1B0AFAEADACABAAA9A8A8A7A6A5A432
:1031F000A3A3A2A1A09F9F9E9D9C9C9B9A999998F6
:103200009797969595949393929191908F8F8E8E98
:103210008D8C8C8B8B8A8989888887878685858425
:1032200084838382828181800000FF070000F87F11
:10323000DFF848C170B51CEA111E1EBF1CEA131549
:103240009EEA0C0F95EA0C0F00F06F8081EA0304F0
:1032500023EA4C134EEAD47E21EA4C1141F480114A
:1032600043F48013AE44A1FB024CA0FB0365AEF116
:103270007F7E361955EB0C05A1FB034C4CF1000386
:10328000A0FB021C16EB0C06654153F1000309423A
:1032900018BF46F0010613F4007F0BD14FEA03314B
:1032A0004FEA0530340341EA155140EA16506FF0F9
:1032B00003020AE04FEAC3214FEAC520F40241EAC3
:1032C000555140EA56506FF0020202EB2E4201EBDC
:1032D000025585EACE710AD05FEA440C18BF24F08B
:1032E000004450F1000041F1000120EAD47040F2A6
:1032F000FE7C624500D270BDA84214BF4FF08044EE
:103300004FF04044002E08BF0024BEF1806FA8BFDC
:10331000A1F1C041BDE8704080F282804FF0000012
:1033200001F1C04101F0004170479EEA0C0F0CEA28
:10333000131518BF95EA0C0F06D04FF0000081EA74
:10334000030E0EF0004170BD00F01CF88900013E34
:1033500000F007B800F009B84FEA430C5FEA5C5C84
:1033600008D081EA030100F05BB84FEA410C5FEA44
:103370005C5CF6D14FF00000014970470000FF0788
:103380000000F87F0EF1020E2EF0030E5EF8046BC3
:10339000364205D4012A43EB030515F5001F12D868
:1033A000012841EB010C1CF5001F0CD80ED14FEA8F
:1033B000D17C15F5001F0CEB4C0C0CF1020C08BF76
:1033C0004CEBD37C04E04FF0080C01E04FEAD37CD7
:1033D0000CEB4C0526FA05F606F00706B6F1040CD0
:1033E00006D20EEB860CBDE870404CF0010C604735
:1033F000DFE80CF0090B02024FF000414FF0000033
:10340000A1F5002170BD19461046012851EB0104B9
:1034100018BFD4F5001484BF002001F0004170BD36
:103420000808A0F500114FEA3101704743004FEA48
:10343000D30C4FEA3C0C43401FBF40070CF16051D6
:1034400013F0FE4F70471CF0006F03D100200CF00A
:10345000004170470CF0004343EA507010B540EA59
:10346000CC0000F027F800BF000000924FEA0001F6
:10347000FFF7D6BF4FF000414FF00000A1F500214B
:103480007047000010F0004148BF4042B0FA80F39E
:1034900010FA03F2C3F19D030BD051EAC35101EBC3
:1034A0001220530638BF704700F1010008BF20F01A
:1034B000010070470EF1020E2EF0030E5EF8044B71
:1034C000244204D44FEA4102B2F17F4F11D84FEAAF
:1034D0004003B3F17F4F0CD80ED14FEAD07CB2F14C
:1034E0007F4F0CEB4C0C0CF1020C08BF4CEBD17C69
:1034F00004E04FF0080C01E04FEAD17C0CEB4C03E8
:1035000024FA03F404F00704B4F1040C06D20EEB21
:10351000840CBDE810404CF0010C6047DFE80CF073
:10352000070802024FF00040A0F5800010BD0846D9
:10353000420018BFD2F1807288BF00F0004010BD79
:10354000FF2141EAD050C005704700000000000094
:103550000000010203040607080900000000010240
:103560000304000000000102030402040608020C28
:10357000081000000000000000000102030406071C
:1035800008090000474647303000000050455447C6
:1035900000000000BC35000800000020E40200002C
:1035A00008010008B8360008E4020020F416000004
:1035B00064010008C1E4FFFF4DE4FFFF9103151211
:1035C0007A223D42081A03091209C301FF2A64182E
:1035D00031791512071A01322CE02C1A163133807A
:1035E000BF12C01DC05DFFFC022112441F55C1C3A4
:1035F000ECBC010141100890E43DE03C1A049F75C9
:1036000001110404045B091D381AFF01993C3D0CAB
:10361000040403A4112F03035F6ED7BE951A448AD6
:103620003CFEFFFE54AE50C1C3EDE93C5BECF0B391
:1036300029434206092B7F1A6401100A90E40E7D8B
:1036400032313138153D363937339117313334360D
:1036500035022D3739333810173DC01DB40501EA46
:10366000162831600833F03DC00D6F070319FCE8E0
:10367000364746423030041D4142539CDDB1D4BE32
:103680006104311801F0CB0F30010111E9CC69015F
:103690004BBB440809414241D009414D535F46317B
:1036A00030321915C33038500A013DC008B20860E5
:0836B000B40463F4010213C825
:04000005080000CD22
:00000001FF
